{
  "_format": "hh-sol-artifact-1",
  "contractName": "Bank",
  "sourceName": "contracts/Bank.sol",
  "abi": [
    {
      "anonymous": false,
      "inputs": [
        {
          "indexed": false,
          "internalType": "address",
          "name": "user",
          "type": "address"
        },
        {
          "indexed": false,
          "internalType": "uint256",
          "name": "amount",
          "type": "uint256"
        }
      ],
      "name": "moneyAdded",
      "type": "event"
    },
    {
      "anonymous": false,
      "inputs": [
        {
          "indexed": false,
          "internalType": "address",
          "name": "user",
          "type": "address"
        },
        {
          "indexed": false,
          "internalType": "uint256",
          "name": "amount",
          "type": "uint256"
        }
      ],
      "name": "moneyWithdrawn",
      "type": "event"
    },
    {
      "inputs": [
        {
          "internalType": "uint256",
          "name": "amount",
          "type": "uint256"
        }
      ],
      "name": "addMoney",
      "outputs": [],
      "stateMutability": "nonpayable",
      "type": "function"
    },
    {
      "inputs": [
        {
          "internalType": "address",
          "name": "user",
          "type": "address"
        }
      ],
      "name": "getBalance",
      "outputs": [
        {
          "internalType": "uint256",
          "name": "",
          "type": "uint256"
        }
      ],
      "stateMutability": "view",
      "type": "function"
    },
    {
      "inputs": [
        {
          "internalType": "uint256",
          "name": "amount",
          "type": "uint256"
        }
      ],
      "name": "withdrawMoney",
      "outputs": [],
      "stateMutability": "nonpayable",
      "type": "function"
    }
  ],
  "bytecode": "0x608060405234801561001057600080fd5b50610538806100206000396000f3fe608060405234801561001057600080fd5b50600436106100415760003560e01c80635487692114610046578063d0bc1a8814610062578063f8b2cb4f1461007e575b600080fd5b610060600480360381019061005b91906102d4565b6100ae565b005b61007c600480360381019061007791906102d4565b6101c0565b005b6100986004803603810190610093919061035f565b610251565b6040516100a5919061039b565b60405180910390f35b806000803373ffffffffffffffffffffffffffffffffffffffff1673ffffffffffffffffffffffffffffffffffffffff16815260200190815260200160002054101561012f576040517f08c379a000000000000000000000000000000000000000000000000000000000815260040161012690610413565b60405180910390fd5b806000803373ffffffffffffffffffffffffffffffffffffffff1673ffffffffffffffffffffffffffffffffffffffff168152602001908152602001600020600082825461017d9190610462565b925050819055507f630898e2c2f457e1126e20e444ed2807734fc741f763c11e28d5777781c6928a33826040516101b59291906104a5565b60405180910390a150565b806000803373ffffffffffffffffffffffffffffffffffffffff1673ffffffffffffffffffffffffffffffffffffffff168152602001908152602001600020600082825461020e91906104ce565b925050819055507f3b5c0aca711b3e6db0ef1a7e7b7ac9ef51c4053e0211b45f7c93ebf2fe274d0633826040516102469291906104a5565b60405180910390a150565b60008060008373ffffffffffffffffffffffffffffffffffffffff1673ffffffffffffffffffffffffffffffffffffffff168152602001908152602001600020549050919050565b600080fd5b6000819050919050565b6102b18161029e565b81146102bc57600080fd5b50565b6000813590506102ce816102a8565b92915050565b6000602082840312156102ea576102e9610299565b5b60006102f8848285016102bf565b91505092915050565b600073ffffffffffffffffffffffffffffffffffffffff82169050919050565b600061032c82610301565b9050919050565b61033c81610321565b811461034757600080fd5b50565b60008135905061035981610333565b92915050565b60006020828403121561037557610374610299565b5b60006103838482850161034a565b91505092915050565b6103958161029e565b82525050565b60006020820190506103b0600083018461038c565b92915050565b600082825260208201905092915050565b7f4e6f7420656e6f756768206d6f6e657900000000000000000000000000000000600082015250565b60006103fd6010836103b6565b9150610408826103c7565b602082019050919050565b6000602082019050818103600083015261042c816103f0565b9050919050565b7f4e487b7100000000000000000000000000000000000000000000000000000000600052601160045260246000fd5b600061046d8261029e565b91506104788361029e565b92508282039050818111156104905761048f610433565b5b92915050565b61049f81610321565b82525050565b60006040820190506104ba6000830185610496565b6104c7602083018461038c565b9392505050565b60006104d98261029e565b91506104e48361029e565b92508282019050808211156104fc576104fb610433565b5b9291505056fea264697066735822122019e3ba5f6788dee9550423a5550faa26bde9c7ec0581b9ee6ddc6080ac7d5ec964736f6c63430008120033",
  "linkReferences": {},
  "deployedLinkReferences": {}
}